S010000050726F4E49434170702E733337B8
S3150800000000080020811403088D1403088D140308C2
S31508000010EDFB02088D1403088D1403088D140308DC
S315080000208D1403088D1403088D1403088D14030812
S315080000308D1403088D1403088D1403088D14030802
S315080000408D1403088D1403088D1403088D140308F2
S31508000050FF5701083D580108615E01088D14030821
S315080000608D140308637402089D740208C3C301084B
S31508000070B9C301088D1403088D1403088D140308E9
S315080000808D1403088D1403088D1403088D140308B2
S315080000908D1403088D140308530D03088D140308E3
S315080000A08D1403088D1403088D1403088D14030892
S315080000B08D1403088D14030823A302083BAA02081B
S315080000C00FAA02080DAA0208F5A3020839AA02080F
S315080000D011AA020815AA020813AA0208D5AA020834
S315080000E099AA02088D1403088D1403088D140308B1
S315080000F08D1403088D1403088D1403088D14030842
S315080001008D1403088D1403088D1403088D14030831
S315080001108D1403088D1403088D1403088D14030821
S315080001208D1403088D1403088D1403088D14030811
S315080001308D1403088D1403088D1403088D14030801
S315080001408D1403088D1403088D1403088D140308F1
S315080001508D1403088D1403088D1403083526030827
S315080001608D1403088D140308B5C40208B9C402081F
S31508000170FFFFFFFFFFFFFFFF000010300000000039
S31508000180000000000000000000001003000000004E
S3150800019000000000000000001E000003000001002F
S315080001A00200010003000100020001000400010032
S315080001B00200010003000100020001000500010021
S315080001C00200010003000100020001000400010012
S315080001D00200010003000100020001000600010000
S315080001E002000100030001000200010004000100F2
S315080001F002000100030001000200010005000100E1
S3150800020002000100030001000200010004000100D1
S3150800021002000100030001000200010007000100BE
S3150800022002000100030001000200010004000100B1
S3150800023002000100030001000200010005000100A0
S315080002400200010003000100020001000400010091
S31508000250020001000300010002000100060001007F
S315080002600200010003000100020001000400010071
S315080002700200010003000100020001000500010060
S315080002800200010003000100020001000400010051
S315080002900200010003000100020001000000000046
S315080002A0000000870102030405060708090A0B0C6B
S315080002B00D0E0F101112131415161718191A1B1CE8
S315080002C01D1E1F222122232425262728292A2B2CD6
S315080002D02D2E2F333132333435363738393A3B3CC5
S315080002E03D3E3F440A1B2C3D00004E5F00000000C7
S315080002F000000000000000000A1B2C3D00004E5FB5
S31508000300000000000000000000000000506879743A
S3150800031065630000C800000000000000000000003F
S315080003200000000001000000000000000D000000B1
S3150800033000000000010000000000000000000000AE
S315080003400000000000001F00000000000000000080
S315080003500000000000020000000103000000000089
S3150800036000000000000100010010002B6129A1090E
S31508000370060760857405080101A203020100A305AA
S31508000380A103020100BE10040E0800065F1F040048
S315080003900000100340000700000100100001000DD6
S315080003A0C001C100010000600100FF02000000005A
S315080003B0000100100001001F601DA10906076085E5
S315080003C07405080101BE10040E01000000065F1F37
S315080003D00400621E5DFFFF005265736574696E67EF
S315080003E0207468652073797374656D206279205767
S315080003F061746368446F672074696D65720D0A00DD
S315080004005265736574696E672074686520737973BD
S3150800041074656D206279204E6F726D616C2052652D
S315080004207365740D0A00000001000000000000005A
S3150800043000000F000000000052782074696D657294
S315080004402069732072756E6E696E670D0A0000006A
S3150800045001001F000000000000000000000000006E
S31508000460FFFFFF1F00000000446576696365206989
S315080004707320696E20464143544F52595F4D4F448D
S31508000480450D0A0044657669636520697320696EBF
S315080004902052554E5F4D4F44450D0A00000000009E
S315080004A00000000001000000000000000A00000033
S315080004B00000000000000000000000000500000029
S315080004C00000000000000000000000000500000019
S315080004D00000000007000000000000000000000007
S315080004E000000000030000000000000005000000F6
S315080004F000000000040000000000000006000000E4
S315080005000000000077130308851303088D130308FA
S31508000510AF1303083F140308B1130308FB130308BA
S315080005202C00000001031001010903000B00000064
S315080005300C0000000300000000002020000000005E
S31508000540020000003C3C3C000000000000000000E7
S3150800055000000000050000000000000000C20100C5
S31508000560000200000010000000000000000000006B
S31508000570000000000000015B0001000056000000BA
S315080005800000000000000000040000000000000059
S31508000590030000000000000000000000000000004A
S315080005A000000000000010003C00015B0000000095
S315080005B0000000000B0C0000E09600202000000060
S315080005C001000000496E2044656661756C745F48D9
S315080005D0616E646C65722046756E6374696F6E0D24
S315080005E00A000000484653523A20307825303858D9
S315080005F00A0D0000466F72636564204861726420C4
S315080006004661756C740D0A005343422D3E434653AA
S3150800061052203D203078253038780A0055736167B6
S3150800062065206661756C743A200000004469766935
S315080006306465206279207A65726F0A00723020201C
S315080006403D203078253038780A00000072312020A5
S315080006503D203078253038780A0000007232202094
S315080006603D203078253038780A0000007233202083
S315080006703D203078253038780A0000007231322063
S315080006803D203078253038780A0000006C7220202A
S315080006903D203078253038780A0000007063202025
S315080006A03D203078253038780A00000070737220B3
S315080006B03D203078253038780A0000000500000013
S315080006C00000000000C20100000500000010000044
S315080006D000000000000000005E000000DF7E000849
S315080006E0DD000000E57E0008DF000000E77E000868
S315080006F041000000EF7E000842000000FB7E000873
S315080007007C000000DB8400087D0000003D850008B1
S315080007107E000000E98400087F0000003785000895
S31508000720EE00000041860008EF000000438600083E
S315080007304E00000025800008550000004180000892
S315080007405C000000618000085A0000006B80000809
S315080007506000000011810008000000000000000091
S31508000760736963736C6F7770616E00000F282220BF
S31508000770008882800F252321000140FF60070008BA
S315080007805FF702081DF4020852FF53FF54FF55FF96
S3150800079056FF57FF58FF59FF5AFF5BFF5CFF5DFF87
S315080007A05EFF5FFF60FF61FF62FF63FF64FF65FF37
S315080007B066FF67FF68FF69FF6AFF6BFF6CFF6DFFE7
S315080007C06EFF6FFF70FF71FF72FF73FF74FF75FF97
S315080007D076FF77FF78FF79FF7AFF7BFF7CFF7DFF47
S315080007E07EFF7FFF80FF81FF82FF83FF84FF85FFF7
S315080007F086FF87FF88FF89FF8AFF8BFF8CFF8DFFA7
S315080008008EFF8FFF90FF91FF92FF93FF94FF95FF56
S3150800081096FF97FF98FF99FF9AFF9BFF9CFF9DFF06
S315080008209EFF9FFFA0FFA1FFA2FFA3FFA4FFA5FFB6
S31508000830A6FFA7FFA8FFA9FFAAFFABFFACFFADFF66
S31508000840AEFFAFFFB0FFB1FFB2FFB3FFB4FFB5FF16
S31508000850B6FFB7FFB8FFB9FFBAFFBBFFBCFFBDFFC6
S31508000860BEFFBFFFC0FFC1FFC2FFC3FFC4FFC5FF76
S31508000870C6FFC7FFC8FFC9FFCAFFCBFFCCFFCDFF26
S31508000880CEFFCFFFD0FFD1FFD2FFD3FFD4FFD5FFD6
S31508000890D6FFD7FFD8FFD9FFDAFFDBFFDCFFDDFF86
S315080008A0DEFFDFFFE0FFE1FFE2FFE3FFE4FFE5FF36
S315080008B0E6FFE7FFE8FFE9FFEAFFEBFFECFFEDFFE6
S315080008C0EEFFEFFFF0FFF1FFF2FFF3FFF4FFF5FF96
S315080008D0F6FFF7FFF8FFF9FFFAFFFBFFFCFFFDFF46
S315080008E0FEFFFFFF000001000200030004000500F0
S315080008F006000700080009000A000B000C000D009E
S315080009000E000F001000110012001300140015004D
S3150800091016001700180019001A001B001C001D00FD
S315080009201E001F00200021002200230024002500AD
S3150800093026002700280029002A002B002C002D005D
S315080009402E002F003000310032003300340035000D
S3150800095036003700380039003A003B003C003D00BD
S315080009603E003F004000410042004300440045006D
S3150800097046004700480049004A004B004C004D001D
S315080009804E004F005000000052782054696D657281
S315080009902053746172746564205061636B65637477
S315080009A02053746172746564205265636976696E52
S315080009B0670D0A0052782054696D65722053746F6A
S315080009C0707065642C5061636B6574205265636949
S315080009D07665640D0A0000007365745F676C6F6264
S315080009E0616C5F616464726573730D0A00000000D0
S315080009F000000000FFFFFFFFFFFFF40100000000FA
S31508000A000000000004010001000600000F000001BC
S31508000A10040000000F0042102C01D4530003000507
S31508000A202000000050C300008813000014003200A4
S31508000A30F4010700000000000000000000FFFFFFAF
S31508000A40FFFF0100409C00000000000000000001BC
S31508000A500040000000000000000000000000000048
S31508000A600000000000000000000000000000000078
S31508000A700000000000000000000000000000000068
S31508000A800000000000000000000000000000000058
S31508000A900000000000000000000000000000000048
S31508000AA00000000000000000000000000000000038
S31508000AB00000000000000000000000000000000028
S31508000AC00000000000000000000000000000000018
S31508000AD00000000000000000000000000000000008
S31508000AE000000000000000000000000000000000F8
S31508000AF000000000000000000000000000000000E8
S31508000B0000000000000000000000000000000000D7
S31508000B1000000000000000000000000000000000C7
S31508000B2000000000000000000000000000000000B7
S31508000B3000000000000000000000000000000000A7
S31508000B400000000000000000000000000000000097
S31508000B500000000000000000000000000000000087
S31508000B600000000000000000000000000000000077
S31508000B700000000000000000000000000000000067
S31508000B800000000000000000000000000000000057
S31508000B900000000000000000000000000000000047
S31508000BA00000000000000000000000000000000037
S31508000BB00000000000000000000000000000000027
S31508000BC00000000000000000000000000000000017
S31508000BD00000000000000000000000000000000007
S31508000BE000000000000000000000000000000000F7
S31508000BF000000000000000000000000000000000E7
S31508000C0000000000000000000000000000000000D6
S31508000C10000000000000000040000200B0C80020EC
S31508000C20540000000401000041000100B2C8002081
S31508000C30000000000100000042000100B3C80020C7
S31508000C40000000000100000043000100B4C80020B5
S31508000C50000000000100000044000100B5C80020A3
S31508000C600600000029000000450001000DC900200B
S31508000C7000000000B501000046000200B6C80020CA
S31508000C8000000000B501000047000100B8C80020B8
S31508000C90000000000F000000480003009CC8002068
S31508000CA0000000000000000049000100B9C800204B
S31508000CB000000000FF0000004A000800A8C8002045
S31508000CC000000000000000004B000200A0C8002041
S31508000CD000000000000000004C000100BAC8002017
S31508000CE000000000FF0000004D000100BBC8002006
S31508000CF000000000010000004E000100BCC80020F2
S31508000D0000000000050000004F000100BDC80020DB
S31508000D10000000000800000050000200A2C80020E1
S31508000D2000000000FEFF000051000100BEC80020C0
S31508000D30000000000100000052000100BFC80020AA
S31508000D40000000000100000053000200A4C80020B3
S31508000D5000000000FEFF000054000100C0C800208B
S31508000D60000000000F0000006D000200C2C800204D
S31508000D7000000000FF00000055000200A6C8002081
S31508000D8000000000FFFF000056000100C8C8002050
S31508000D90000000000100000057000100C9C800203B
S31508000DA0030000000800000058000200C6C8002022
S31508000DB000000000FFFF000059000100CBC800201A
S31508000DC000000000070000005A000100CCC80020FF
S31508000DD002000000400000005B000200CEC80020B0
S31508000DE000000000FFFF00005C000100CAC80020E8
S31508000DF000000000010000006F000800C4CA0020BF
S31508000E0000000000000000006B0002007CD40020F7
S31508000E10000000000000000069000200C4C80020AD
S31508000E2000000000FF0000005D000100C1C80020AE
S31508000E300000000001000000710001007897002002
S31508000E4000000000000000007200010084970020E6
S31508000E5000000000FF0000007300010088970020D2
S31508000E6000000000000000007400010094970020B4
S31508000E7000000000FF0000007500010098970020A0
S31508000E80000000000000000076000100A497002082
S31508000E9000000000FF00000077000400A89700206B
S31508000EA0000000000000000078000100AC97002058
S31508000EB0000000000700000079000100AD9700203F
S31508000EC000000000030000007A000800AE9700202A
S31508000ED000000000000000007B000100B69700201B
S31508000EE000000000FF0000007C000800B797002003
S31508000EF000000000000000007D000800BF970020E9
S31508000F0000000000000000007E000200C8970020D4
S31508000F1000000000FEFF00007F000100CA970020C5
S31508000F20000000000000000061000400D0C8002096
S31508000F30000000000000000062000400D4C8002081
S31508000F40000000000000000064000200D8C800206D
S31508000F50000000000000000065000200DAC800205A
S31508000F60000000000000000066000200DCC8002047
S31508000F70000000000000000067000100DEC8002035
S31508000F800000000000000000AC000400E0C80020DB
S31508000F90000000000000000091000100E4C80020E5
S31508000FA0000000000100000092000100E5C80020D2
S31508000FB0000000000300000093000100E6C80020BE
S31508000FC000000000FF00000094000100E7C80020B0
S31508000FD0000000006400000095000100E8C8002039
S31508000FE0000000000000000096000100EEC8002086
S31508000FF0000000000100000097000100F4C800206E
S3150800100000000000010000009C000100F6C8002056
S315080010100000000001000000A2000100F7C800203F
S315080010200000000001000000AB000100F8C8002025
S315080010300000000001000000AC000100F9C8002013
S3150800104000000000FF000000AD000100FAC8002003
S31508001050000000000F000000AE000100FBC80020E1
S315080010600000000001000000AF000200FCC80020DC
S315080010700000000000400000B0000100FEC800208B
S31508001080010000000F000000B1000100FFC80020A9
S315080010900000000001000000B200010000C90020A5
S315080010A000000000010000008E00010001C90020B8
S315080010B000000000FF0000008F00030004C90020A4
S315080010C000000000FFFFFF008D00030008C9002094
S315080010D000000000FFFFFF00900001000CC900207F
S315080010E000000000020000000000000000000000F0
S315080010F000000000000000000000000000000000E2
S3150800110000000000000000000000000000000000D1
S3150800111000000000000000000000000000000000C1
S315080011200000000000000000000000000003FFFFB0
S31508001130FFFFFFFFFFFF01FFFFFFFFFFFFFFFF00AE
S3150800114000000000000000000000000094110020CC
S3150800115000000000000000004950763620616464F3
S315080011607265737365733A20000000007365745FD7
S31508001170676C6F62616C5F616464726573730D0A94
S315080011800000000050726F63756265642D4D41431F
S315080011902D50485900000000841100087B510108B1
S315080011A0B7510108655101087151010875510108C7
S315080011B07D51010840000000DDC300087B000000E7
S315080011C02BC700087800000007C700084D0000007C
S315080011D063E3000854000000E1C200085B00000059
S315080011E00DE600085D00000045C10008DE000000AD
S315080011F0B1CA00080000000000000000524F4C4C25
S3150800120020544D00B1B2B3B400000011B1B2B3B46A
S3150800121000000011FC11000807250308D92103085E
S31508001220E5240308A3FF0108210002082900020893
S3150800123061000208770002083D6901084169010852
S3150800124045690108496901084D690108E16801080D
S315080012500B690108136901081F6901081969010862
S315080012603D800108798001089B800108B18001084A
S31508001270D78001080000000098010000001E002029
S315080012801429020000311100000001000264000167
S31508001290012F000007000000BFE80000BFE80000BB
S315080012A0204E0000609D0000609D00001027000091
S315080012B0F7750000F77500000B1A00000100000022
S315080012C0C0175302040C0000E002000000003C03B3
S315080012D001020504980301020505F4030102060547
S315080012E007010001050000000703000205000000D1
S315080012F00705000205000000100000002222220057
S315080013000000000080120008981200080000000083
S31508001310080000000000000050C300000101F200B0
S315080013200D12500700000000BC1200080000000063
S31508001330000000000000000050C30000000000008C
S31508001340000000000000000010000000BEE22B00B4
S315080013500000000080120008A41200080000000027
S315080013600800000000000000A08601000101F4004A
S31508001370C716500700000000BC1200080000000055
S315080013800000000000000000A08601000000000028
S315080013900000000000000000100000003333330096
S315080013A00000000080120008B012000800000000CB
S315080013B00800000000000000F04902000101F400E6
S315080013C0811B100700000000BC1200080000000086
S315080013D00000000000000000F249020000000000C2
S315080013E000000000000000000C4002000CB11100D3
S315080013F00048000020400200000000000000000035
S31508001400304007002508000000010000FF0000002A
S31508001410410301004040000000400000A007000012
S31508001420504001000B0000005C4002000F0D000058
S3150800143001010000A840010007000000BC400400AC
S31508001440000000000000000000000000000000008E
S315080014500841040001400000FF0C000001410000A3
S31508001460FF0D000020C0011000F8070020C0013061
S31508001470FE01280024C00110FF00000024C001302E
S315080014800013000028C00800EC80B30343754051E0
S31508001490A00F00B830400000A8AA0700000000000E
S315080014A0000000000000000054C01400872130002E
S315080014B0AA009EE6FE0100005E8091999E0000004B
S315080014C088C60200A0040000BA10000000003F0011
S315080014D08D00EE00F601AC03F5049607DE099C0DB7
S315080014E0C3119317FE1DF526BD32FF3FFE15F81BE7
S315080014F0DC23B42DD039FF3FFF3F0000A8C005000C
S31508001500BD4B721511A3180510325476980A0000BF
S3150800151000000000CCC00400FE010000000000002E
S3150800152001000A0001002800080001010E1700004A
S3150800153018000101FFFFFFFF200001012083B8ED1D
S315080015404040260100007011000000001000000055
S31508001550000000042FC282000000002000000000E6
S31508001560000000030000002000000000BD60FE002F
S31508001570400C0000720000001200200009720000F2
S3150800158009720000280F00000000000070031A000E
S3150800159000000462000000000000000A4A54545487
S315080015A0000000000000000000000000000000002D
S315080015B0000000000000000000000000000000001D
S315080015C0000000000000000000000000000000000D
S315080015D0000000000000000000000000E0400111CB
S315080015E0F8010000E040013101020000104102014B
S315080015F0331E0500000000001C410E010050558CEA
S3150800160000000000FF0483078813C83AFF06660C2B
S31508001610FF0483078813FF03BC200AF045605000C7
S315080016200171B04000004E90B5BDE941893B4000CC
S31508001630C00300805841020100000000FFFD0000C1
S31508001640644101010C0100006C410B0100000040DF
S31508001650000000000000000000000000000000007C
S31508001660000000000101000000000000000000006A
S315080016700000000000000000A44102010000000074
S3150800168000000000B0410C010000000068512DC0A8
S31508001690000000000000000000003C00AAAA0600A6
S315080016A0000000000000000055555555DF80BB803E
S315080016B006000E0000000000E4411501E6E7FF0BF6
S315080016C0CDA10A00BD066A005EB04D007D02420E3D
S315080016D0A5B62202FF25B2341E90810C0C490600DD
S315080016E0A8DF6D00C00BB100183DA500E80A020589
S315080016F0271BD71D000000800000000058000000CE
S315080017000000000060180040000000000000000013
S315080017103C4201010000000044420301140000009D
S31508001720000000000800050430430F010000000017
S31508001730000000000000000000000000000000009B
S31508001740000000000000000000000000000000008B
S315080017500000000000000000000000380000000043
S31508001760000000000000FF5810800101030000007F
S31508001770388002010D121000030000009C8003014E
S315080017800000000070B8030070B80300A8800111BB
S31508001790F6010000A880013101420101AC80011167
S315080017A0F6010000AC80013101420101B08002015E
S315080017B00003000200030002980003020000000074
S315080017C0000C00044C040000D8000202050040AAE0
S315080017D088010000EC000112E00F0000EC00013265
S315080017E00D205151F00001022B05000000010102F5
S315080017F0100100000401011200000000040101327A
S31508001800100100001001011200FF0F001001013243
S31508001810020000422C01011200FC1F002C010132BB
S31508001820A9008000400101023F000000500101129A
S3150800183000C0000050010132620051006801020236
S315080018401000060000200600740101026901100C50
S315080018507801011200001C00780101324004E0CF33
S31508001860800101127907000080010132060000009C
S31508001870880102029000000000000000AC0101127D
S31508001880F8010000AC01013204020100B0010102B6
S315080018900000000040400803000000080010000196
S315080018A0002020000002080000400100400002005D
S315080018B00004800010000400FC4F0103F812000821
S315080018C0FFFFFFFF0C4002000CB1110000480000AA
S315080018D02040020000000000000000003040070021
S315080018E02508000000010000FF0000004103010078
S315080018F04040000000400000A007000050400100E2
S315080019000B0000005C4002000F0D00000101000002
S31508001910A840010007000000BC40040000000000C9
S31508001920000000000000000000000000084104005C
S3150800193001400000FF0C000001410000FF0D0000FF
S3150800194020C0011000F8070020C00130FE01280061
S3150800195024C00110FF00000024C00130001300005D
S3150800196028C00800EC80B30343754051A00F00B8A7
S3150800197030400000A8AA0700000000000000000090
S315080019800000000054C014008721300087007EE65E
S31508001990950100004A65737A7E00000088C6020039
S315080019A0A0040000BA10000000003F008D00EE0001
S315080019B0F601AC03F5049607DE099C0DC3119317CF
S315080019C0FE1DF526BD32FF3FFE15F81BDC23B42DA0
S315080019D0D039FF3FFF3F0000A8C00500BD4B721578
S315080019E011A3180510325476980A0000000000006A
S315080019F0CCC00400FE0100000000000001000A003F
S31508001A0001002800080001010E1700001800010156
S31508001A10FFFFFFFF200001012083B8ED40402601AB
S31508001A200000106000000000100000000000000424
S31508001A302FC2820000000020000000000000000302
S31508001A400000002000000000FD2FFC0040080000F8
S31508001A504A00000012002000097200000972000006
S31508001A60460F00000000000090033B0000000762DC
S31508001A70000000000000000A4A5454540000000008
S31508001A800000000000000000000000000000000048
S31508001A900000000000000000000000000000000038
S31508001AA00000000000000000000000000000000028
S31508001AB00000000000000000E0400111F8010000ED
S31508001AC0E04001310102000010410201331E050009
S31508001AD0000000001C410E010000E08C0000000020
S31508001AE0FF0483078813C83AFF06660CFF048307BA
S31508001AF08813FF03BC200AF07B7950000167A940D0
S31508001B0000004E90B0E84841893B4000C003008081
S31508001B105841020100000000FFFD00006441010178
S31508001B200C0100006C410B010000004000000000A1
S31508001B300000000000000000000000000000000097
S31508001B400101000000000000000000000000000085
S31508001B5000000000A441020100000000000000008F
S31508001B60B0410C010000000068D52FC0000000003D
S31508001B700000000000003C00AAAA060000000000C1
S31508001B800000000055555555E780BB8004000A0043
S31508001B9000000000E4411501F907E111CCE9050050
S31508001BA0328E6C0032B14E0082011C0E74F765024B
S31508001BB09B255033FFAB000A5CF10F00D3410200AE
S31508001BC095EDB100197BD80F1208B904EA1B6D1FF1
S31508001BD0000000800000000058000000000000001F
S31508001BE06018004000000000000000003C420101AF
S31508001BF00000000044420301140000000000000039
S31508001C000800030430430F01000000000000000034
S31508001C1000000000000000000000000000000000B6
S31508001C2000000000000000000000000000000000A6
S31508001C30000000000000003800000000000000005E
S31508001C400000FF58108001010300000038800201DF
S31508001C50C7161000030000009C8003010000000066
S31508001C6070B8030070B80300A8800111F6010000DF
S31508001C70A880013101420101AC800111F601000082
S31508001C80AC80013101420101B0800201000300026B
S31508001C90000300029800030200000000000C000484
S31508001CA04C040000D8000202050040AA8801000082
S31508001CB0EC000112E00F0000EC0001320D2051513A
S31508001CC0F00001022B0500000001010210010000CE
S31508001CD00401011200000000040101321001000095
S31508001CE01001011200FF0F0010010132020000422C
S31508001CF02C01011200FC1F002C010132A9008000F2
S31508001D00400101023F0000005001011200C000001E
S31508001D1050010132620051006801020210000600FB
S31508001D2000200600740101026901100C78010112F5
S31508001D3000001C00780101324004E0CF8001011246
S31508001D4079070000800101320600000088010202BE
S31508001D509000000000000000AC010112F80100002C
S31508001D60AC01013204020100B001010200000000CA
S31508001D704040080300000008001000010020200071
S31508001D800002080000400100400002000004800034
S31508001D9010000400FC4F010348130008FFFFFFFF73
S31508001DA00C4002000CB1110000480000204002005F
S31508001DB00000000000000000304007002508000071
S31508001DC000010000FF000000410301004040000040
S31508001DD000400000A0070000504001000B00000072
S31508001DE05C4002000F0D000001010000A840010040
S31508001DF007000000BC4004000000000000000000CE
S31508001E000000000000000000084104000140000036
S31508001E10FF0C000001410000FF0D000020C001106A
S31508001E2000F8070020C00130FE01280024C0011078
S31508001E30FF00000024C001300013000028C008007D
S31508001E40EC80B30343754051A00F00B83040000042
S31508001E50A8AA07000000000000000000000000001B
S31508001E6054C0140087213000700068E65001000055
S31508001E703E545F656800000088C60200A0040000A2
S31508001E80BA10000000003F008D00EE00F601AC031A
S31508001E90F5049607DE099C0DC3119317FE1DF5265A
S31508001EA0BD32FF3FFE15F81BDC23B42DD039FF3FAA
S31508001EB0FF3F0000A8C00500BD4B721511A3180509
S31508001EC010325476980A000000000000CCC00400C6
S31508001ED0EE0000000000000001000A0001002800D2
S31508001EE0080001010E17000018000101FFFFFFFF9F
S31508001EF0200001012083B8ED404026010000903003
S31508001F000000000010000000000000042FC282003C
S31508001F100000000000000000000000030000002090
S31508001F20000000003F20FE004008000048000000B6
S31508001F30120030000972000009720000501F0000EC
S31508001F4000000000B203080000000662000000005E
S31508001F500000000A4A545454000000000000000023
S31508001F600000000000000000000000000000000063
S31508001F700000000000000000000000000000000053
S31508001F800000000000000000000000000000000043
S31508001F9000000000E0400111F8010000E0400131B6
S31508001FA00102000010410201331E05000000000076
S31508001FB01C410E010050558C00000000FF048307E9
S31508001FC08813C83AFF06660CFF0483078813FF03C5
S31508001FD0BC200AF0046E50000169A74000004E902C
S31508001FE0ACA14841893B4000C0030080584102012A
S31508001FF000000000FFFD0000644101010C01000023
S315080020006C410B01000000400000000000000000C9
S3150800201000000000000000000000000001010000B0
S3150800202000000000000000000000000000000000A2
S31508002030A44102010000000000000000B0410C01AC
S315080020400000000068D52FC0000000000000000056
S3150800205000003C00AAAA06000000000000000000DC
S3150800206055555555E780BB8004000A00000000005E
S31508002070E44115010BE0F11498090100DB757000C5
S31508002080F5F14C008540FD0D4A38A70254252B3240
S31508002090EA6B8F00B3000E00773A0E002FBFBB0025
S315080020A015BA4C0F2206A704981DF92100000080D6
S315080020B000000000780000000000000060180040E2
S315080020C000000000000000003C4201010000000082
S315080020D04442030114000000000000000800030445
S315080020E030430F010000000000000000000000005F
S315080020F000000000000000000000000000000000D2
S3150800210000000000000000000000000000000000C1
S315080021100000003800000000000000000000FF5822
S31508002120108001010300000038800201811B1000A5
S31508002130030000009C8003010000000070B8030043
S3150800214070B80300A8800111F6010000A8800131CB
S3150800215001420101AC800111F6010000AC80013199
S3150800216001420101B08002010003000200030002DF
S315080021709800030200000000000C00044C04000054
S31508002180D8000202050040AA88010000EC000112EE
S31508002190E00F0000EC0001320D205151F000010261
S315080021A02B050000000101021001000004010112C4
S315080021B000000000040101321001000010010112A4
S315080021C000FF0F0010010132020000422C0101122B
S315080021D000FC1F002C010132A90080004001010209
S315080021E03F0000005001011200C0000050010132FA
S315080021F06300510068010202100006000020060074
S31508002200740101026901100C7801011200001C001A
S31508002210780101324004E0CF8001011279070000FD
S3150800222080010132060000008801020290000000C9
S3150800223000000000AC010112F8010000AC010132F7
S3150800224004020100B001010200000000404008033A
S31508002250000000080010000100202000000208000D
S315080022600040010040000200000480001000040045
S31508002270FC4F010398130008FFFFFFFF0000000052
S31508002280E0609033A0860100000000001200FF7F86
S315080022905C11002000000000E012000800000000A9
S315080022A000000000E0609033400D030000000000CD
S315080022B00900FF7F6411002000000000E8120008F2
S315080022C00000000000000000E0609033400D0300AD
S315080022D0000000000900FF7F6C11002000000000CC
S315080022E0F012000800000000E813000800000000D3
S315080022F07C2200080100000000000000C0175302FD
S31508002300C418000800000000A02200080100000010
S3150800231000000000C0175302A01D000800000000BE
S31508002320C42200080100000000000000C017530284
S31508002330284E554C4C20495020616464722900008F
S315080023403A3A464646463A25752E25752E25752E61
S3150800235025750000D2002EFFFF00D20028000000DD
S31508002360F0003E0E6D23F8FF66009D04E581FEFF32
S3150800237036000F02A1CAFFFF2100420176110000B4
S315080023801400C100A02900000C006E00BA2B000042
S31508002390070047002B26000004001C00BA1800009E
S315080023A0820098FEFF0082001E000000F000E2088E
S315080023B04C3AFFFF9F00E606C3F2FFFF7100740464
S315080023C0CE9400004F002D0356C3000036001802B5
S315080023D0BEC9000027009901EFBD00001B000301DC
S315080023E0F69E00000F004400E25400001E0048FE5E
S315080023F0FF001E001E000000F0007208D60203004F
S31508002400AE0025079BF502008400100511AF0200F7
S315080024105E0081031F4D020041007B02ABEB010009
S315080024203000DA01DC9E010020004B01A6470100BE
S3150800243012005700528B0000BAFF34FEFF00BAFFA5
S315080024401E000000F0000F08D2E80500A50053069C
S31508002450F02E05007B00A0044A4B040056005A03E0
S315080024601E7A03003E006B025DC602002B00B10116
S31508002470DA2302001F00300168A40100120073006D
S315080024809CCB0000000901F054230008000901F064
S31508002490A0230008000901F0EC230008000901F058
S315080024A0382400080000000000000000637C777BE9
S315080024B0F26B6FC53001672BFED7AB76CA82C97D32
S315080024C0FA5947F0ADD4A2AF9CA472C0B7FD9326C3
S315080024D0363FF7CC34A5E5F171D8311504C723C3C7
S315080024E01896059A071280E2EB27B27509832C1A0B
S315080024F01B6E5AA0523BD6B329E32F8453D100ED65
S3150800250020FCB15B6ACBBE394A4C58CFD0EFAAFB48
S31508002510434D338545F9027F503C9FA851A3408F10
S31508002520929D38F5BCB6DA2110FFF3D2CD0C13EC28
S315080025305F974417C4A77E3D645D197360814FDCBD
S31508002540222A908846EEB814DE5E0BDBE0323A0AA1
S315080025504906245CC2D3AC629195E479E7C8376D25
S315080025608DD54EA96C56F4EA657AAE08BA78252E4A
S315080025701CA6B4C6E8DD741F4BBD8B8A703EB566D3
S315080025804803F60E613557B986C11D9EE1F89811C4
S3150800259069D98E949B1E87E9CE5528DF8CA1890DB3
S315080025A0BFE6426841992D0FB054BB160B000000D8
S315080025B0000000000000000000000000000000000D
S315080025C005000000000000000000020000001000E6
S315080025D000000000000000000000000000000000ED
S315080025E007000000020000000000000000000000D4
S315080025F000000000000000000000000000000000CD
S3150800260000000000000000000000000009000000B3
S3150800261000000000000000000000000000000000AC
S315080026200300000000000000000000000000100089
S315080026301200000001000000000000000000000079
S315080026400700000000020000000000000000000073
S31508002650000000000000000000000000000000006C
S315080026600000000000000000000000000600000056
S31508002670000000000000000000000000000000004C
S31508002680000000000000000000000000000010002C
S315080026900200000001000000000000000000000029
S315080026A00700000002000000000000000000000013
S315080026B0000000000000000000000000000000000C
S315080026C000000000000000000000000006000000F6
S315080026D000000000000000000000000000000000EC
S315080026E000000000000000000000000000001000CC
S315080026F001000000010000000000000000000000CA
S3150800270006000000010000000000000000000000B4
S3150800271000000000000000000000000000000000AB
S315080027200000000000000000000000006090A31AEE
S31508002730F26EEF03410821066310420AA518630EDC
S31508002740E720941249A9B518AC39F72251CA392994
S31508002750D55EAC39BDFB0F006C3E0000A931000008
S31508002760C1310000C1310000C1310000C131000093
S31508002770C131000000000000000000000000000059
S3150800278000000000C1310000C1310000C131000065
S31508002790ED290000C13100002B2B00003B2B000067
S315080027A0DF2B0000572C0000B72C00003D2E000040
S315080027B0D72C0000CD2E0000232D0000752D00001B
S315080027C0F12D00001D300000ED300000F92A000050
S315080027D0E5260000E521000003270000C1270000C8
S315080027E0C1310000BD2800007D280000C13100006D
S315080027F0C131000015290000C1310000C1310000B7
S31508002800C1310000C1310000C1310000C1310000F2
S315080028100F1300000513000056488068000200D414
S31508002820704780B58020800253490860CF2000F0A9
S31508002830D1FA102051490968014003D0B849C86344
S315080028400220086001BDF8B54D48816B4D4F8022C6
S3150800285092033A604C4E336840241D050BD41C4045
S315080028602AD0012003F069F8002825D08020C00569
S315080028708E49086020E0130BA0250D4002D10068A0
S31508002880C00601D53B6017E00A403FD18020884A40
S315080028901060884A1060194038D0364D287A4007AB
S315080028A005D5012084490860000284490860287813
S315080028B0002801D0062801DB0020F2BD00F09CFBB1
S315080028C0716889684E682978052907D1E105B960D4
S315080028D06E60B668CC218901784A116000F095FBD4
S315080028E0012E00DA0226BC2080058E490860942055
S315080028F080058D4908606E480021C943016471420C
S3150800290041648021894A11600460D5E7A3480360C1
S31508002910FFF782FF0120F2BD18480168890504D532
S31508002920C06E0004000F022801D000207047012065
S31508002930704738B580245E48046000F05DFB0500EA
S315080029409748006800F0CAF9280000F05EFBFFF718
S3150800295063FF0848007A000705D5A0000949086002
S3150800296000F029FC31BD60038C4908608D4804607D
S3150800297031BD0000783E00001C1002A8440002A8E1
S315080029800C0002A8442002A8CC3E0000FEB50400B4
S31508002990854D8C2080016860012684480660FFF713
S315080029A0BBFF002826D08248007800287DD0310257
S315080029B00194052802D022460A4076D1CC229201FB
S315080029C02A607C4A126881231B02134001D0032324
S315080029D001E053075B0F0C01022804D1022B62D3D6
S315080029E0364804605CE04D01032804D1022B5AD90D
S315080029F032480560F7BD042802D1114053D0F7BD0F
S31508002A00052850D1019800284DD0C005C10F684649
S31508002A1041700198C004C10F6846017000F0ECFAD5
S31508002A2002906348406869464978002903D00668D9
S31508002A308021204A1160670499496A461278002A5B
S31508002A400CD0C2680B68D21A964B1B683B4001D063
S31508002A50066800E04668964200DD1600684640783B
S31508002A606A461278024308D008684242B01E82427B
S31508002A7002DA7042886000E00026029800F0C5FA83
S31508002A800198800501D59C4807600198054001D04A
S31508002A909A480760002E06D0CC20800107490860B6
S31508002AA0BA480460F7BDFFF744FFF7BD4C6201A8BA
S31508002AB00CC001A890E001A8C4D000A8145001A831
S31508002AC038B580248E480460012038490860384D9E
S31508002AD02878052802D06000AD490860FFF71CFF7A
S31508002AE0002812D02E480068000A80214140A868B4
S31508002AF0000EC9B2814208D22E4800684007400F2E
S31508002B00022802D2FFF715FF31BDA2480168C0228C
S31508002B100A4002D1C06F204001D00448046031BD8C
S31508002B20082002A808E001A808D001A894D001A8A6
S31508002B300A0000D1704780B51822514340180C305E
S31508002B404069002803D08021090300F0E5F901BD9A
S31508002B5038B500F051FA04008F480568A8688178EE
S31508002B602800FFF7E5FF68880121014369800220F4
S31508002B708A4908608A490860200000F046FA31BD93
S31508002B8010B500F039FA0400834800688168C978EE
S31508002B90FFF7CEFF200000F038FA10BD441002A857
S31508002BA018C000A8100002A8106001A8C4E000A878
S31508002BB0783E0000184001A8F1B582B00F00A020A9
S31508002BC0384003D177480068C00603D580208000C6
S31508002BD0754962E000F010FA01906F480468F8023F
S31508002BE004D5A0680069029000F07FFB00F0D1FBD5
S31508002BF080210903606800F08FF926780020761C8A
S31508002C006178B14200D200261821714365180C3547
S31508002C1029780829F3DA2670A5602978634A11709D
S31508002C20B9050FD500F0E8F95B4909688968C968EC
S31508002C30009100F0EAF9F80203D4009803218843CA
S31508002C400090009859498860012738400DD15848A6
S31508002C500299426B89180068081A564940180128D3
S31508002C6003DB00F08DFC01F00FF8F904686900F049
S31508002C7053F93C2000F0AEF8F0B200F0ABF86088EB
S31508002C804D4901406180019800F0BFF93805464971
S31508002C9008604A4807603802494908600298FEBD3C
S31508002CA048C001A84C0002A810B54648006880052F
S31508002CB001D4FE2010BDC02080034349086000F0FF
S31508002CC09BF9354909688A78D20702D589688C78CC
S31508002CD000E00C7800F099F9200010BD2E4909682B
S31508002CE08A688B78DB0704D5927818235A438A18A2
S31508002CF00C329060704700004C1002A84C2002A8C5
S31508002D0094E001A8F1B582B0304F3C680026200F48
S31508002D10000702D1E00102902AE000F0B5FF00F0BA
S31508002D206BF9019080210903606800F0F5F82578B1
S31508002D306D1C6078A84200D20025E80020180C30E7
S31508002D40009000680290802109030098406800F00E
S31508002D50E3F83D2000F03EF8E8B200F03BF82570B5
S31508002D600098A060019800F050F902A801F020F838
S31508002D7017480068800407D5F86901F094FC0299A1
S31508002D800818029000D502960298FEBDAC3E0000D7
S31508002D90146001A814C001A8D03E0000284000A86D
S31508002DA0448001A80C0002A8442002A8783E00002E
S31508002DB09C3F00000010FFFFFEFF0000C0E000A8D7
S31508002DC0106001A8440002A8441002A8D43E0000DE
S31508002DD0FC0302A845490968002901D54449086049
S31508002DE07047F2B582B0434CA168434D4A004ED5B0
S31508002DF00126090100D521260100404A10685268BB
S31508002E0000922A689206920E23689B0080273B4010
S31508002E1013437A001A430192394F0A0026D08906CD
S31508002E2001D5012008E0F021014007D16946097A59
S31508002E300C220A4002D0022000F042F8396EBC2269
S31508002E40920091420DD12F490968C90309D5216815
S31508002E50490306D52168090701D4022100E00321A8
S31508002E6000914836019A3968890002E0019AB96BDF
S31508002E7009094023194011439A00009B002B02D0F0
S31508002E8013432B660836296602432A662E66E86DC2
S31508002E9045076D0F00F09AF8A8070BD0052D09D045
S31508002EA0A068000406D400F0A7F80221164A1160AB
S31508002EB000F0ABF800F093F8002000F001F8F7BD39
S31508002EC00E490A68F0239A43000110430860C0B20D
S31508002ED070478020C0020D490968890701D10C494D
S31508002EE000E00C490860704700000000500002A886
S31508002EF0884000A8480002A8284000A8783F00009B
S31508002F00184001A8CC3E000024D50350844000A8F0
S31508002F10486000A8485000A880B5494A116001F0E9
S31508002F20EDFBFFF7D6FF01BD70B500F065F8454A21
S31508002F30454BD1688C0819002140D1246400D52955
S31508002F4001D2D52102E0A14200D921000D00463563
S31508002F502D041E042E400D00463D2B4033431360BE
S31508002F60C0221206394B1A60394A137C002B0AD044
S31508002F70384BD52902D98025ED051D60A14202D21C
S31508002F80802424061C600023334C23605388002BBE
S31508002F9000D1118000F039F870BD80B52F4830494E
S31508002FA008603048C1680902090A1922514341607C
S31508002FB005210160FFF7B8FF01BD2A480068C00374
S31508002FC000D4704780B5FFF7AFFF01BD8020C0026F
S31508002FD01B490860244800684007FBD470478020D6
S31508002FE0C00222490860704701E02149086021496A
S31508002FF009680140F9D170471F48006820211F4A17
S31508003000116010211E4A116070473021014002D11B
S3150800301010201A4908607047174800683021014097
S31508003020102901D101207047002070471548012159
S315080030300160C160704701201349086070470000AD
S31508003040441002A87C400050FF010000A060005018
S31508003050843F0000A450005018E000E07F1A0601E3
S31508003060540002A810E000E0440002A8442002A888
S31508003070282002A8280002A8600002A8602002A84A
S31508003080601002A8789001A884A001A8F8B54C4859
S3150800309080214902C16102214A4A516000214A4AF7
S315080030A011604A4A11800321464A116002210160D3
S315080030B00020474908602020464908608020464984
S315080030C00860CC2080014549086001244448046012
S315080030D03D48806F00900F26070B3740414800682F
S315080030E0C505ED0D103DC0202843C0B2FFF772FE9E
S315080030F03D480068C00503D5092F01D001F052F9F3
S31508003100009806400096394806680098032803D0B8
S31508003110022806D1032F31D000F0A1FA009803281F
S3150800312003D0062F2AD1062D28D031480068C00BB7
S31508003130204001D001F002FC2E480068000108D5A5
S31508003140052D06D101252C4804606005FFF74CFFC4
S3150800315000E000253100380000F0DAFA0600002DFC
S3150800316006D000F087FC2548046002202449086040
S3150800317060052249486580092249086011482104EA
S315080031800162002F08D10221416000200E49086122
S31508003190C020C000114948643000F2BD80B5FFF771
S315080031A015FF19480078800602D4022017490860DE
S315080031B0FFF715FF01BD022015490860704700009A
S315080031C02C1002A8282002A8380002A8B03E000049
S315080031D0AC3E000094E001A80CC001A8146001A848
S315080031E0C4E000A804ED00E0B80002A8B44000A8B6
S315080031F000E200E0FC3E0000645000A8646000A8FD
S315080032002C4000A880E200E0CC3E0000081002A88E
S31508003210082002A870B5714C714D80267601924837
S315080032200068304005D06660062001F057FC6E60E5
S3150800323004E06E60062001F051FC66603D20A06047
S31508003240702129600F222A602160A86070BDF8B538
S31508003250854C8025ED02854E6F097068384002D18D
S315080032606068800525D5FFF7C7FE81490D60FFF721
S31508003270CCFE70687F490140902040010843706089
S315080032807D487E490860002060607068384002D139
S31508003290F020800060607068074025D07848006894
S315080032A0C00721D57748007880071DD401F01EFC99
S315080032B018E03068C00717D5FFF79EFE6C490D6009
S315080032C0FFF7A3FE7048FF21FE314160F121490254
S315080032D06A4A11602168C90401D5822100E0C32128
S315080032E049020160FFF796FFF1BD80B563480121E9
S315080032F05E4A12680A4006D0644A1268920501D4EA
S31508003300CA0202608160C0214160FFF775FE802114
S31508003310C902BA4A39E0F8B5594804685C4D8027AD
S31508003320022634420AD05B480068E021C900014001
S3150800333004D02F600420686101206861FFF75CFEF5
S31508003340D021C903214007D18A490968314003D1F0
S31508003350894901224A600E60210507D52F6004219C
S315080033606961C1490D220A600F220A60FFF74DFE06
S31508003370F1BD80B5FFF740FE0121804A1160934AEE
S315080033800223136051600021914A1160FFF73DFE48
S3150800339001BD90480068C007FBD4B44804214161C8
S315080033A08021016070478C4908680122104200D1CB
S315080033B0704710B5E023DB000340FF24A41CA3429A
S315080033C007D3AB4B9C6BA40602D41B68DB0600D55F
S315080033D04868024001D000F001F910BDA82102A8F2
S315080033E0A81102A8F8B5C821854A11600621854AA0
S315080033F0116080214903844A1160844C890921603F
S3150800340083490A684B691C251D40102D01D10123EB
S3150800341000E0002305000720824313430B60286859
S3150800342094490F68874200D30700C01B2860012112
S31508003430280000F087FB06002868C0192860FFF7F7
S315080034406AFF8D480168C90603D584208000E061BB
S3150800345007E0954908220068104001D00A6000E09C
S315080034604A603000F2BD0000AC0102A8EC0002A8D8
S315080034703850005AFFE3FFFF00FEFFFFAC2102A809
S31508003480500002A8803E0000AC1102A8B00102A8B4
S31508003490841102A8980102A8F1B582B0834884492C
S315080034A008608020C00183490860834E0820B06503
S315080034B00421B165814901220A601F23B362804B4A
S315080034C0832464009C61022410256B4F3F682F40BB
S315080034D004D000967B4F019737600EE00D270197C1
S315080034E0654F3F68074004D01F0010370097B26544
S315080034F003E01F0014370097B465019E009F3E60E5
S31508003500714E3668002E00D4986170481860C02045
S31508003510C0006F4E3668F827FF01374001D1D862E0
S3150800352000E048616B480068104007D05A666A4850
S315080035300068800503D4D002D86500E05D635D4D60
S31508003540286C024008D0686BC00705D46348006839
S31508003550044001D101F002FB029C0020C0436049EF
S315080035600860FFF7D8FE200001F0A6FA686B800114
S31508003570FCD4F7BD00400C5000500C50982102A80E
S3150800358038B5FFF7F6FE4D4CB72040002060554D84
S31508003590032028634D48A8660020E0615249086068
S315080035A00D2035490968090701D5A86700E0E867CD
S315080035B0FFF79BFE1020E061012028600C2028639D
S315080035C0802000023B49086031BD000000600C50B5
S315080035D000000C509C0102A8883F0000F021090158
S315080035E0424A116001404248016020204149086072
S315080035F04149096808404149086070473860005ADF
S31508003600548001A80C9001A8982002A8A41002A82A
S31508003610740102A880B53A483A4982680A4002D13C
S31508003620C268114001D02149016025480821364A5F
S3150800363013680B4000D081611178C90602D586212E
S3150800364009010160FFF7AFFE1420FE218901086019
S31508003650B4480168490701D0FF21416101BD1348FB
S31508003660134908607047000000100C50842102A816
S315080036700C0002A89C3F0000FC0302A8234800682F
S31508003680A9490968890F89070CD0A8490968C90793
S3150800369008D5A749802292030A60A64B1A601040F3
S315080036A000D00A6070470000601102A801200000DF
S315080036B0706201A8100002A8C01002A8682102A81A
S315080036C0501102A8FF03000028C000A8043E00000D
S315080036D0A88001A8EC0002A8B00102A8803E00005C
S315080036E0B46000A8E82002A8C00002A8586001A893
S315080036F0585001A8482002A8184001A8481002A856
S31508003700704201A800800080F84F00004C4001A8D4
S31508003710F0B587B005000C0087480068400102D55F
S315080037202000402404438548006805908448C66AFA
S31508003730FFF762FC0690B00503D582480068FFF7DC
S31508003740CDFA0020009001227006C00F01907E4835
S31508003750866800218160B82149007C4B196063089E
S31508003760B82119400078F0230340402B02D1080005
S31508003770402101430D2D02D130000426064370076F
S3150800378004D50800142101431020844370480368B7
S3150800379020003400DB0506D580235B006D4D2B60C9
S315080037A00B00012119436C4D019B002B11D10C23F1
S315080037B00B40082B0DD00B00614EB66BF70601D4F3
S315080037C01027BB43B60601D42026B343B1261E40B4
S315080037D042D0130042D0AB6DDB04DB0C792B07D348
S315080037E080210622564B1A604A02A14B1A60002213
S315080037F081230B4035D00823019E002E00D12B6271
S3150800380026000824344310239843042302931B05F7
S315080038109C4E33605B08464E336013001ED0029BF5
S31508003820062B25D3444BDE6CF60621D5964E366814
S31508003830360E00965B699BB2934EF66B360603D03E
S315080038401E0080235B0133432B611B122B61404B07
S315080038501B68DE059ED40BE008222A6203900491B9
S3150800386033E000BF3DA34E06F60E9B5D0293D4E7F8
S3150800387003900491029832490B6B834A12682E68AA
S315080038806F46BE8028261E400643980CC00130436A
S315080038901E001B0E3340102633400343900040227F
S315080038A01040184301AA9070486B000A01A9C87015
S315080038B0FFF7FAF901A9087100984871734800687A
S315080038C0C8800198E8660298E8660698FFF79DFBA7
S315080038D008200399490601D56A4988606C49086039
S315080038E0E1B20498C0B2FFF77CFAFFF7C7FEBC2026
S315080038F0800065490A6E824207D1059AD20301D42F
S31508003900086E0BE0634A644B1A60096E814205D162
S315080039100598C00302D5614800688047039807B038
S31508003920F0BD00000C4000A84C4201A8384301A88D
S315080039304C5001A84C6001A8084000A8CC3E0000E5
S31508003940180002A81CC000A8783F0000B46000A8B0
S315080039501C0100AA1C2100AA540000AA030107069C
S315080039600301070605010606050106060302070602
S31508003970030207060502060605020606F8B5484FBD
S31508003980484C0F2501264849A06BC00621D50120C1
S3150800399008704648006846490A68824204D289691E
S315080039A05118491C081A00E0101A424909684018BB
S315080039B0012852DB01F044FC3F490968090B0D4018
S315080039C0022D48D1B1053D4A11601021396426609F
S315080039D041E0206CC00026D539480068E0218905F9
S315080039E001403AD0344C37480068C00504D42068F2
S315080039F0000B28400228F5D033480668FFF7FCFA82
S31508003A003249F2B20A603204120E0A603202120E0B
S31508003A100A60320E0A60FFF7F8FA2068000B2840A1
S31508003A200228DFD0F1BD2A4C2068002815D00E7078
S31508003A3001F042F8002810D101F002FC1E4909687D
S31508003A40090B0D40022D06D131041C4A11600221D2
S31508003A5039600021216001F0F7FBF1BD8020800468
S31508003A601C4908607047802040041A49086070475E
S31508003A70141100AA18480168490701D0FF214161BD
S31508003A8070470000441002A8184001A8448001A805
S31508003A90845000A808000400482002A8083C00003A
S31508003AA0082002A8100002A8B23E00001CC101A806
S31508003AB020C001A8EC3E0000B00002A81C1002A815
S31508003AC04C4001A8084000A8904000A8640000AA3D
S31508003AD0983E00003C2002A80C4000A8F0B58020C3
S31508003AE0000208217D4A11600A217D4A012301242A
S31508003AF08C4004438CA56D5C25431560F025794EF2
S31508003B003560764D8BA6765C022737432F600426F0
S31508003B102E60754D2D681D4003D1156C2D03F8D404
S31508003B2001E00220F0BD156C566C6D036D0BAE42BC
S31508003B3000D22000491EDAD508216A4B19601060A8
S31508003B400020F0BDF3B581B00500FFF712FC674809
S31508003B5004686748006865490860664E28683168E1
S31508003B604718012F13DB00F052FDC001381A01284F
S31508003B700DDBFFF70EFC00F087F82868316840185F
S31508003B8000F09AFF010002D00021296013E0802787
S31508003B90BF00594807605948006F022507282DD0ED
S31508003BA005210840052809D0544801670C2000F073
S31508003BB095FF010002D04D490C60FEBD504EFF2016
S31508003BC07A3070620420B062FFF7E3FB3560E020CC
S31508003BD0C0044C49486048482906416005600120F0
S31508003BE000F07CFF7762022000F078FF68027062BE
S31508003BF00820B062022000F071FFB5626846007ABC
S31508003C000127002805D03D480068384001D0FFF755
S31508003C101EFB3D4EE02040003060042000F05EFFB1
S31508003C206946087068460078002826D13548056038
S31508003C30A802B062C001B062344D10202860F76552
S31508003C40402633480068304007D1FFF747FF6946EA
S31508003C5008706846007800280FD12F600020E867B2
S31508003C60022000F03BFF2B4D2E60B000286002209A
S31508003C7000F034FF8120C002A862FFF79EF91B48B6
S31508003C80046068460078FEBD70B5FFF772FBFFF763
S31508003C9080FB02241D4804601F4E0820B062C00144
S31508003CA07062012000F01AFF250275623460062052
S31508003CB0B0621A487062E020400016490860114E4A
S31508003CC03460FFF783F916480078002800D00520ED
S31508003CD014490860FFF783F9356070BD889001A81C
S31508003CE04C8001A888A001A8140002A8780102A89F
S31508003CF0F80302A8D03F0000981002A8EC0002A81A
S31508003D005C1102A8982002A82C9001A80C8001A892
S31508003D10500002A82CA001A85C2102A8F9610000A5
S31508003D20703F00005C0102A80000000101020202C7
S31508003D3008081000505050404030303030202000E5
S31508003D40F8B504000F00404DA878FF2801D12E8849
S31508003D5008E0FFF751F93D4909684905CE0DFFF717
S31508003D6054F92E80E92E01D2E92604E0CC20400041
S31508003D70864200D9060020003978814200DA080018
S31508003D8001217A56010051430222BA5E891841433D
S31508003D900420385E08182E49711848438015001902
S31508003DA001D50020F2BDE978814200DA0800F2BDAB
S31508003DB038B50400102027490860FFF7EAFAC02042
S31508003DC0C00025490968F822D2010A4001D12349D1
S31508003DD000E0234908602348C82181640A2101605C
S31508003DE021488021490301608909C1601F4801688B
S31508003DF04269E0231340802B01D1012200E0002212
S31508003E00072399430A43026019480068C821C90173
S31508003E1045182068854200D30500401B2060002114
S31508003E202000FFF78FFE21684919216032BD8020E6
S31508003E3000011049086000030F49086002200F4975
S31508003E4008600F4908607047F83F00008840005036
S31508003E50D6FEFFFF984101A8AC8001A87C1102A8F4
S31508003E607C2102A80C8001A8981002A8740102A857
S31508003E70983F0000441002A8442002A8F41302A8A0
S31508003E80685000A8F1B584B0C54800680190C54CD3
S31508003E90E068C821C90140180499884204D2081A62
S31508003EA000F00AFE002803D10126BF4D686830409D
S31508003EB000D0CBE10420BD49C8628003BC498862B2
S31508003EC0BC4800680290A86B8007800F00907704B2
S31508003ED0032803D01020B549C86224E00846876243
S31508003EE0E96B890601D5012045E00299090611D535
S31508003EF0EA6B02210A400DD10522C04B1A60EA6B13
S31508003F0010231A401143BD4A116000211160A96BA4
S31508003F10090A11600421C162E86B002803D5A34889
S31508003F20876200200090A86B400704D5A86BC000E4
S31508003F303102084002E02068304201D0FFF74EFB0C
S31508003F40029805210140052909D1C148009989012E
S31508003F504018006AC004C00C401EBE490860C02054
S31508003F608000BD49486500990902BC4A1160BA4BF0
S31508003F70986551600020296C942292050A40110028
S31508003F8000D001216A46117069460978014341D07B
S31508003F9088483021405CC021014040290CD1FFF7F8
S31508003FA0FDF8A06B019001A8FFF71CFA002833D191
S31508003FB00198FFF771FA01E0FFF7FDF82020286065
S31508003FC068460078002800D140E1A54FA54CA86BAB
S31508003FD040070CD5B0037649886240027349886267
S31508003FE026600220386000F031FA00280BD0042041
S31508003FF06E49C86240026E49886200036B4988624E
S315080040000220206038606B480078000600D41DE165
S31508004010F00419E16868304000D017E16448C762C7
S31508004020FEF7D4FF286C000406D4FEF7E5FF02214C
S31508004030994A1160FEF7E9FFFEF7D1FF30032860C1
S31508004040964FC02000063863300495490860A86B6F
S315080040504007C10F68460170FEF7CEFF91490E6012
S31508004060FEF7D3FF904891498861686B000206D530
S315080040708F48801C0068F1054C4A916200E0A06CEC
S31508004080296CC90209D5202807D900BF76A1019A4B
S31508004090520700D4891DFFF753FE854A1070002881
S315080040A001D1002209E042091F231840062A04D933
S315080040B040003043202800D31F20530103435002F9
S315080040C01843386001207B4AD36F7B4A1A43794BE1
S315080040D0DA677E668022FA620822714B1A66019AAE
S315080040E0D20603D5AA6B920603D403E0019A1207F7
S315080040F000D400206D4DA9492960FC2129610028BA
S3150800410009D028003C300290206DE16C1A46D16631
S31508004110616ED16708E0280040300290A06D19460C
S31508004120626DCA66A26ECA6762490A68FF239A4325
S3150800413010430860A020C0003863052000F0CEFCBC
S315080041400198400701D5802000E0402002990860C8
S3150800415002203863062000F0C1FC082038630520D9
S3150800416000F0BCFC3E633002A864042000F0B6FCF4
S3150800417076027E60022000F0B1FC8420800038635D
S31508004180022000F0ABFCEE61062000F0A7FC0298C6
S3150800419083494018019949070ED520210DE000BF33
S315080041A0FC0302A88C3F0000100002A81C2002A8ED
S315080041B01C1002A8CC3E000010210160062000F069
S315080041C08DFCBE640020C0432349086000F01FFA36
S315080041D0401DC001E1684518700198494E6F0640B8
S315080041E097490860974F049885420AD2E168401AB1
S315080041F000F062FC002803D03E6027E0E40000AA35
S31508004200049D012000F06AFC8020400024490860D3
S31508004210280000F051FCC03C68460078002806D10A
S3150800422086480068606280200004874908603E600E
S3150800423068460078002809D0012000F04FFC207855
S31508004240000603D5802000039749086005B0F0BD35
S315080042500C0000AA204000A8B46000A8085100A8D5
S31508004260685000A8F41302A8C0350C109E8DAF1B29
S315080042703813460D80B5FEF7BFFE8C4900220A604A
S315080042800A22CA61FEF7C1FE894883210904016032
S315080042908849416001BD000024E503503C1102A88D
S315080042A0B81002A800500C50FF0E0000242102A8E6
S315080042B0FA3F0000280102A8FF3FFF3F7E48806BB7
S315080042C0800300D47047F8B57C4804687C4D0826FE
S315080042D0E00629D57848806B800627D42800483020
S315080042E00090012000F0FAFB002776480760764820
S315080042F0066076480068C00403D4754800683040F4
S31508004300FBD0022000F0EAFB8420800068650220CA
S3150800431000F0E4FB70016F490860042000F0DEFB42
S31508004320600706D5202005E03442D7D128004C3056
S31508004330D6E7102000990860FEF75EFE0121664A5E
S315080043401160FEF762FE0220686500F0C7FB0920CF
S315080043506865C02000066865022000F0BFFB00986B
S315080043600F494018610701D5802100E0402101600E
S31508004370A020C0006865082000F0B0FBB001E86620
S315080043802E60E0202865554807604760B0024A4914
S315080043900860000152490860F1BD00003F3F000077
S315080043A000F0FFFFF8B54F4800680D2707400424C2
S315080043B0002F00D104274C480225102608214B4A15
S315080043C04B4B1B682340126818D04260394005D011
S315080043D00220FEF775FD6003464908603C4007D099
S315080043E04548006806434448066028034149086072
S315080043F00120424908604248056018E002603940D9
S3150800440005D00220FEF75CFDA0023A4908603C4050
S3150800441006D0394801680E430660680235490860C7
S315080044203648056036480560A8062D490860FFF736
S3150800443045FF00210020FEF7D4FCF1BD20C001A8ED
S3150800444094E001A894D001A81C1002A810B58020F9
S315080044502C490A6802400AD02B4B1A6806241440D5
S3150800446005D15C6E294A22401B6D9C0101D50020AE
S3150800447010BD096808400DD02548824203D11805A9
S3150800448001D5012010BD23480068C107C90F481E81
S315080044908041C00F10BD204803210164A821C163D3
S315080044A010210160704700001C2002A8D80000AA4D
S315080044B0442002A804000080100002A8FC0302A8F9
S315080044C0182102A8B80002A8106001A8D84001A8BF
S315080044D0104001A86C1102A800600C50A00102A8A7
S315080044E0482002A8B44000A8F43E00001CC101A858
S315080044F0480002A8441002A8783F0000F41302A856
S31508004500685000A8440002A814C001A81F1F000094
S31508004510010C000030C101A8082002A86C480068F8
S315080045200121084209D16B4A12686B4B000C1840EE
S31508004530F03291400B40984201D00220704700208B
S315080045407047F8B507000F386A461080604CE06877
S315080045500A0004D16B461B8882B29A423AD20022DC
S315080045606B461A80012502263A0013D0226832408B
S3150800457007D000292ED059480088401C5749088082
S3150800458000203900216156490E6080B2B84201D335
S3150800459069460D805348456000E030BF20683040CA
S315080045A003D1FFF7BBFF0028F7D04D484560390017
S315080045B010D02168314005D048490A886B461B88C7
S315080045C0D2180A80066000202061E068B84201D24D
S315080045D044480660FFF7A2FFF2BD38B5050000F0B3
S315080045E02FFE0400012199204543A8093E4A126876
S315080045F08018123880B2FFF7A4FF05008020C0019A
S315080046003A490860200000F01FFE280032BD3348F2
S3150800461003883549096802889342F9D110040818B5
S315080046207047FEB51238070C6946088000F008FE88
S315080046300190274C294D2888B8421ADA01202C49BE
S315080046400860274E30BF02202168014006D030603E
S315080046504003264908602888401C2880FFF75EFF2B
S31508004660010002D12988B942ECDB012171600028DA
S315080046700DD12888B8420AD1E06869460988884277
S3150800468005D2002168460088FFF75BFF01E0FFF7C7
S3150800469045FF04008020C00114490860019800F015
S315080046A0D3FD2000FEBD10B512490A680E4B1B68E3
S315080046B00C689442FAD0DB014033141A02D2886996
S315080046C02418641C0C4800684443181B10BD0000DD
S315080046D0280002A804ED00E0FF3F0000B03E0000FD
S315080046E0282002A8281002A8340002A880E200E0C8
S315080046F02C1002A820C001A8A83F0000F0B502E0CF
S315080047000A601C602E607EC84F1C07D05F1C04D050
S315080047106F1CF5D10A601C60F0BD0A60F0BD000090
S3150800472080B5FEF7CDFB01207C49086001BD80B548
S31508004730EB2000F001F801BD30B5FE2189010B68B8
S3150800474018401022134210D0754B764C246822402C
S3150800475008D0754A14682402FF252D0225401D63DA
S3150800476000241460802252031A60086030BDF3B535
S31508004770010016001C00002500956C48019A3300BC
S3150800478000270BE0BC464F5D4743AE009E597E406E
S31508004790575D47433740664637436D1CA542F1D3FC
S315080047A0390939438A080A43510811430840C1099F
S315080047B001430F208A0B0A4302405040F6BDF1B56B
S315080047C082B00E00002058490860594DEF7AA87A41
S315080047D001900F21394000910ED00B46554A564993
S315080047E00298FFF7C4FF019901404F4801609948B4
S315080047F041439948084001D1012400E044013809A1
S3150800480015D032003B0929000298009E6D7A751969
S315080048104019FFF7ACFF01990911014042480268A7
S315080048200B0113430360002901D048004443FC20D0
S3150800483080010068204001D10420FEBD0020FEBD95
S3150800484080B50A0000211180844952888018FFF734
S31508004850B6FF02BDF0B50F22814B5C7905780F20B3
S315080048602040C540200928409C79C440E40701D46B
S315080048700320F0BD2B4C2468A50708D5794D9E6802
S315080048804700F65B761E2E608026B601EE60DD7860
S31508004890DE79C640F00711D5E0060FD5002D0DD0FC
S315080048A0714848600888488008881C7800192A409A
S315080048B080185A7880182A09801800E00020088095
S315080048C00020F0BD80B569480168694A08200142A0
S315080048D000D09061C90602D5862109011160654993
S315080048E0654A1368034005D0644B1B689B0F9B07FA
S315080048F000D008600B480078C023034002D180200E
S315080049004005086010682022104008605C4800686E
S31508004910C00101D4FFF70BFF01BD00002C4000A821
S315080049201C1002A8CC3E00009C3E000001010101BB
S315080049304C3F0000043F0000443F0000F8B55148D2
S31508004940016846680E405048304050490860504A51
S31508004950022100200127330422D50097137E002B5D
S3150800496009D113694B4CA361D36854691B19494C87
S315080049706361177607E0474BD4689C6114695569EB
S3150800498064195C611076537E002B00D00090507637
S31508004990009B002B04D004233F4C23603F4B196037
S315080049A00C053F4DF3022BD51268130605D53D4875
S315080049B00068A8602F70A98016E03A4203D03A48EA
S315080049C0A860AF8010E0D10610D52749A960374AFC
S315080049D091780B071B0F12789A1809095118A980A4
S315080049E0E880A888002809D0264309E0510604D59E
S315080049F0281D2F4909688847F3E7A880FFF797FE1F
S31508004A00264026D0214E74603460A9881D480029A6
S31508004A100DD0026A8A420AD3291D2648AA689047F9
S31508004A200100F2D0FEF74CFA1A480760F1BD0A00F9
S31508004A300CD0FC229202F261184A0B03936634608A
S31508004A401465006A884204D3D464F1BDEB20FFF7ED
S31508004A5073FEF1BD1111000021840000243F0000FF
S31508004A60543F0000204000A8E9200000F84F00004D
S31508004A70502102A8481002A8184001A84C4201A8D3
S31508004A80D04000A8B44000A8FFFFDFFFB46000A82C
S31508004A90CC3E00002C4000A8F41302A8685000A8D9
S31508004AA0A03E0000103C0000FD200000553F00001D
S31508004AB00C3C0000D84000A810B5C409FFF7A7FDB4
S31508004AC0201A312806DAC000183801D4C01EFDD5D0
S31508004AD0002010BD2000FFF7A4FD10BDC3214843E8
S31508004AE06F3801D41E38FDD5002070475248012181
S31508004AF0017052490A684260496881605049E0225B
S31508004B0052010A60802292004E4B1A60FD224A60CA
S31508004B104D49096801614D494D4A11608121C90015
S31508004B204C4A11604C490968C16007204B49086026
S31508004B3002204B49086070473F48017800290CD08D
S31508004B400169414A116000210170C168424A116039
S31508004B503A4982684A60406808607047FEB5C020D6
S31508004B60C00440490860404C404860654048A0651C
S31508004B701020FFF7B3FF01005CD1FF2000053D4977
S31508004B8008603D483D4908603D48206080256D0322
S31508004B90384805603B4807680820FFF79FFF010073
S31508004BA048D10826384806600120FFF797FF3548A0
S31508004BB08068019035480660354820602D480560B4
S31508004BC00820FFF78BFF010034D12F48066001202B
S31508004BD0FFF784FF2B4DA86800902C4806602D48E7
S31508004BE020600199009800F05FF80004FC26B603DF
S31508004BF006400198C10B0098C00B00F055F8010655
S31508004C00FC208005084030432349020C4A40FF2314
S31508004C109B1CD2181140014321602F60802000039D
S31508004C20144908601D481E4901601E494160FFF786
S31508004C3083FF0020FEBD0000843E0000AC0102A8F0
S31508004C40AC1102A8B02102A8F00002A8083E000094
S31508004C50F02002A8F01002A8704001A8706001A810
S31508004C60705001A820E000A84C0102A857140000C3
S31508004C70FF3FFF3FB42002A80000380EB41002A878
S31508004C8010103030104101A8105101A8106101A878
S31508004C9030301010202020203F3F0000A02102A81D
S31508004CA0F703F000FF3F000010B54904CA1040049E
S31508004CB0C310991A00209A18D30F9A18521052182E
S31508004CC08B115B0E5B18DB11D2182023541A01D402
S31508004CD022001843CC0F611849105B08F6D110BDA5
S31508004CE010B5C20018231340FF249C40E2438907ED
S31508004CF0090E9940030004D47D489B089B00C01800
S31508004D0006E0C04B0007000F083880088000181816
S31508004D1003681A401143016010BD80B578225421FA
S31508004D20002000F039FA01BD10B500F089FA714982
S31508004D3001220A60704B714C2360714C2360032377
S31508004D40704C2360704C2360704B1A60704B1A606D
S31508004D50704AB94B1A6011228A6300F075FA10BDC1
S31508004D6000F06EFA05000024012160B2FFF7B8FFD3
S31508004D70641C0E2CF8D301210F20FFF7B1FF012187
S31508004D801120FFF7ADFF01211320FFF7A9FF01212D
S31508004D901720FFF7A5FF03210120C043FFF7A0FF57
S31508004DA001211E20FFF79CFF01211F20FFF798FF16
S31508004DB086488749086002209349086001209F4970
S31508004DC008604704914C20683840FCD0FEF7E5F8A7
S31508004DD0280000F039FA8E4D0AE000281BD0FEF7AD
S31508004DE00BF918E020683840FCD0300000F02CFAA7
S31508004DF0206D0004000F022801D1FEF7BFFD00F068
S31508004E001FFA0600FEF708F900286878E5D000289A
S31508004E1001D1FEF7FAF801202978002906D1884938
S31508004E200968890601D47849086030BF00212970CD
S31508004E300221754A116081490860D3E781480168F3
S31508004E4042680A40804810402C490860800703D50C
S31508004E50BA480188491C01807047FEB57B4801683D
S31508004E6040680840000E00060090794800680190E6
S31508004E70784C794D802189044A0ABC239B00774ED9
S31508004E80009FFF0111D537689F420CD110400AD008
S31508004E90A9677348C167734FA76386277F022F6088
S31508004EA0C0273F01076002202060009808401CD0F8
S31508004EB0E9673068984218D10198024015D00C204D
S31508004EC0A66EF1B22A290DD1674800688047FF20EF
S31508004ED000023040BC210902884202D1A948006874
S31508004EE080478C2020600120A0630098A867F7BD42
S31508004EF000E400E0040002A80000FF3F282002A802
S31508004F002C1002A840E002A844C002A804C001A8C8
S31508004F10044001A820006006F0B581B0884C2068DE
S31508004F206568054098490D6098480268002A13D1BB
S31508004F308022520115420FD0954B5E68F6070BD5B5
S31508004F401B68DB0008D5934B802636061E6000BF1B
S31508004F5000BF96041E600A609E4E317806290FDA55
S31508004F6000688C218901014329401ED000F068F9A8
S31508004F7007002800FDF70AFD380000F065F914E07F
S31508004F800168844A526B92050FD5C822D2040A4397
S31508004F902A4005D0FEF772FB2800FDF7F7FC04E06F
S31508004FA0A90202D58021490101608B4800684000AA
S31508004FB009D5A80607D5A068000704D530780728BC
S31508004FC001D1FDF7C5FD01B0F0BD0000FFFF9BC094
S31508004FD000E100E010B58148016844680C4080484B
S31508004FE0046080210C4205D041607E4801600020A3
S31508004FF0FDF7CCFC600403D5802040057A4908609B
S3150800500010BD00001CED00E0602002A8600002A8A8
S31508005010B23E000038B57548016844680C40E007A0
S3150800502007D500F00DF90500FDF74AFD280000F048
S315080050300BF96F48046031BD145001A8601002A82E
S31508005040F40302A8280002A8FFFF00C0B44000A885
S31508005050CC3E00002C4000A83C6000A8784001A87F
S315080050603C5000A80D002000003C0000FEB5614C35
S31508005070206C676C074001252F4216D02E065E4825
S31508005080066020685D490D60002802D00021FDF702
S3150800509043FF5B480068A021C90188428041C0439C
S315080050A0C00F5849487058480660FDF7A5FF01909B
S315080050B0022007403ED06168CEB20F0A5349082243
S315080050C0474B4403012E24D0022E31D1012F22D181
S315080050D04F4EF67900964E4E37780126BE404D4F14
S315080050E03E604B4E3678760590277F04F7190326DF
S315080050F03E43494F3E601C60484B1C600B68009C51
S315080051001B194B65424909788D4045490D6045494B
S315080051100DE00090DFE7002F0AD1434E35600025E9
S315080051204D655C601C60C104404B196040490A60CB
S31508005130324908600198FDF768FFF7BDB03E0000E8
S31508005140104001A870B5FDF757FF040000F078F885
S3150800515031490A68D2070FD52C4A566D1368354D62
S315080051602E60CE68AE604968E9808021C904224E67
S315080051703160297B5918516500F066F82000FDF763
S3150800518044FF70BD043C0000106001A8AC3E00005E
S31508005190344301A8100002A8002800D0704770B553
S315080051A00C00FDF729FF050000F04AF80600FDF798
S315080051B03DFF214804600121204A1160026C0A4023
S315080051C0FCD1FDF738FF300000F03EF82800FDF767
S315080051D01CFF70BD783E00004C4201A890C001A893
S315080051E090E001A80CC001A804ED00E0C0C000A82A
S315080051F0C0E000A800C002A8441002A840E002A827
S31508005200404000A8B23E0000442002A818800A5078
S31508005210C13E000068A00A5060C101A894D001A848
S3150800522068900A50F42302A860E101A880E200E031
S31508005230F41302A8BC3E00000080095040900950B3
S31508005240EFF3108072B67047002800D162B6704737
S3150800525080B5FDF71BFFB948006800030CD4FEF7BC
S31508005260FEF9FFF72BF8FEF78BF90120FFF702F896
S31508005270FEF70AFDFFF760FC80208005FDF7B4FE07
S3150800528001BD80B5FDF702FF80204002FDF7ACFEA8
S3150800529001BDF8B5FDF79AFE864C05206065FDF759
S315080052A09EFEFEF766F880208001C0218901824AA9
S315080052B01268D205D20D012A00D108007F4A116072
S315080052C020607F4F802000043860FDF7DFFE7D48B0
S315080052D00168009140687C4908609948016888051A
S315080052E0C40F984D00202860200003D00098FDF7D1
S315080052F063FC009001262868304005D16846FEF711
S3150800530071F800280BD107E0002C05D098480068F2
S31508005310304001D0FDF79BFF0098FEF7BDF83E60D0
S31508005320022094490860C820C004934908607004A4
S31508005330FDF75AFEF1BDF8B5904F8F4C0125904800
S3150800534090490968014081420FD18F48006828407A
S315080053500BD08E4801688E4805606805E063B8631F
S31508005360014000D1E063A6480560A64E306CC00532
S3150800537006D580200006306000BF00BF40083060B8
S31508005380FEF748F9FDF782FE280320603860FDF72E
S315080053905AFA04009C489D490860A804FDF724FEB3
S315080053A0002C01D08020306099480570F1BD70B599
S315080053B0FDF76CFEFDF70AFE924C0225206C0004F0
S315080053C005D4FDF719FE93490D60FDF71EFEFDF79E
S315080053D006FE1020C043904908600020E0638F490C
S315080053E008608F4E30780521014002D0FDF7D6FEC1
S315080053F001E0FDF7E0FE3068054001D0012020609D
S31508005400FFF760FA80200003FDF7EEFD70BD80B55A
S31508005410FDF73CFE49480068000303D4FEF7B0F8E0
S31508005420FEF732FC80204003FDF7DEFD01BD38B5EE
S31508005430FDF72CFE734C2025FFF708F8002806D048
S31508005440606B000704D5FFF726F8FEF7F0FC256029
S31508005450FEF796F8FEF718FC714800780C21014013
S31508005460042902D1FDF79AFE01E0FDF7A4FE6804BF
S31508005470FDF7BAFD4020206031BD80B5FDF7A6FDD9
S315080054800520B8490860FDF7AAFDFDF7FFFDFFF7FF
S3150800549002F8FF208001006800906846FEF788FC45
S315080054A0002802D10098FEF7EDFC80204004FDF7A5
S315080054B09BFD01BD081102A83C8001A8082102A88D
S315080054C0442002A8AC3F0000983E0000F8B5FDF75E
S315080054D0DDFDA54CA56A5020284002D0FDF75EFEEA
S315080054E001E0FDF768FE474FFEF7B0FF00281BD125
S315080054F0B86B40071DD4786BE0214901014018D1EB
